:020000040000FA
:100000000C9452000C946F000C946F000C946F00D1
:100010000C946F000C946F000C946F000C946F00A4
:100020000C946F000C946F000C946F000C946F0094
:100030000C946F000C946F000C946F000C946F0084
:100040000C94AB000C946F000C946F000C946F0038
:100050000C946F000C946F000C946F000C946F0064
:100060000C946F000C946F00000000002500280025
:100070002B0000000000240027002A0004040404D0
:100080000404040402020202020203030303030342
:10009000010204081020408001020408102001021F
:1000A0000408102011241FBECFEFD8E0DEBFCDBF63
:1000B00011E0A0E0B1E0E4E6F4E002C005900D92AA
:1000C000A030B107D9F721E0A0E0B1E001C01D9256
:1000D000A930B207E1F70E94F5000C9430020C94AD
:1000E00000008E3008F08E508770806480937C0012
:1000F00080917A00806480937A0080917A0086FDF6
:10010000FCCF809178009091790008953FB7F894E2
:100110008091050190910601A0910701B09108011D
:1001200026B5A89B05C02F3F19F00196A11DB11D52
:100130003FBFBA2FA92F982F8827BC01CD01620F8E
:10014000711D811D911D42E0660F771F881F991F49
:100150004A95D1F708951F920F920FB60F9211246E
:100160002F933F938F939F93AF93BF938091010100
:1001700090910201A0910301B0910401309100011E
:1001800023E0230F2D3758F50196A11DB11D2093B3
:1001900000018093010190930201A0930301B093A9
:1001A00004018091050190910601A0910701B09191
:1001B00008010196A11DB11D8093050190930601D0
:1001C000A0930701B0930801BF91AF919F918F91C8
:1001D0003F912F910F900FBE0F901F90189526E81A
:1001E000230F0296A11DB11DD2CF789484B58260F1
:1001F00084BD84B5816084BD85B5826085BD85B5CB
:10020000816085BD80916E00816080936E00109248
:1002100081008091810082608093810080918100C3
:100220008160809381008091800081608093800054
:100230008091B10084608093B1008091B0008160B2
:100240008093B00080917A00846080937A008091DE
:100250007A00826080937A0080917A008160809336
:100260007A0080917A00806880937A001092C100B1
:1002700083E884BD81E085BD84E587BDE6E9F0E0E3
:100280002491E2E8F0E08491882399F090E0880FCF
:10029000991FFC01EE58FF4FA591B491FC01E8595C
:1002A000FF4F859194918FB7F894EC91E22BEC93EA
:1002B0008FBF96EF492E512C612C712CC0E0D0E0FD
:1002C00087B5843508F466C087B5893A08F064C0FC
:1002D00087B587BD8EE00E94710024E530E0DC0127
:1002E0000E9429022FEF33E040E050E00E94CE014F
:1002F0002C5A3F4F4F4F5F4F79018FE00E947100A2
:100300009C01990F440B550B2B5E3140410951095B
:10031000A4E5B0E00E94ED01A30192010E94CE018C
:100320002C5A3F4F4F4F5F4FE216F3061CF487B530
:10033000815087BD2E153F051CF487B58F5F87BDA3
:100340000E9486004B015C0184E6C82ED12CE12C72
:10035000F12C0E948600681979098A099B09683E78
:10036000734081059105A8F321E0C21AD108E10884
:10037000F10888EE880E83E0981EA11CB11CC11400
:10038000D104E104F10429F7209709F499CF0E94E0
:10039000000096CF84E59DCF88EA9BCF052E97FB82
:1003A0001EF400940E94E50157FD07D00E94F80159
:1003B00007FC03D04EF40C94E50150954095309520
:1003C00021953F4F4F4F5F4F0895909580957095C1
:1003D00061957F4F8F4F9F4F08950E941A02A59FEE
:1003E000900DB49F900DA49F800D911D1124089530
:1003F000A1E21A2EAA1BBB1BFD010DC0AA1FBB1F29
:10040000EE1FFF1FA217B307E407F50720F0A21B9A
:10041000B30BE40BF50B661F771F881F991F1A9407
:1004200069F760957095809590959B01AC01BD0131
:10043000CF010895A29FB001B39FC001A39F700D8B
:10044000811D1124911DB29F700D811D1124911DDC
:1004500008950E941A02B7FF0895821B930B089516
:04046000F894FFCF3E
:107E0000112484B714BE81FFF0D085E080938100F7
:107E100082E08093C00088E18093C10086E0809377
:107E2000C20080E18093C4008EE0C9D0259A86E02C
:107E300020E33CEF91E0309385002093840096BBD3
:107E4000B09BFECF1D9AA8958150A9F7CC24DD24C4
:107E500088248394B5E0AB2EA1E19A2EF3E0BF2EE7
:107E6000A2D0813461F49FD0082FAFD0023811F036
:107E7000013811F484E001C083E08DD089C08234E0
:107E800011F484E103C0853419F485E0A6D080C0E4
:107E9000853579F488D0E82EFF2485D0082F10E0AE
:107EA000102F00270E291F29000F111F8ED06801E7
:107EB0006FC0863521F484E090D080E0DECF843638
:107EC00009F040C070D06FD0082F6DD080E0C81688
:107ED00080E7D80618F4F601B7BEE895C0E0D1E017
:107EE00062D089930C17E1F7F0E0CF16F0E7DF06D8
:107EF00018F0F601B7BEE89568D007B600FCFDCFD4
:107F0000A601A0E0B1E02C9130E011968C91119780
:107F100090E0982F8827822B932B1296FA010C0160
:107F200087BEE89511244E5F5F4FF1E0A038BF0790
:107F300051F7F601A7BEE89507B600FCFDCF97BE46
:107F4000E89526C08437B1F42ED02DD0F82E2BD052
:107F50003CD0F601EF2C8F010F5F1F4F84911BD097
:107F6000EA94F801C1F70894C11CD11CFA94CF0C13
:107F7000D11C0EC0853739F428D08EE10CD085E9AC
:107F80000AD08FE07ACF813511F488E018D01DD067
:107F900080E101D065CF982F8091C00085FFFCCF94
:107FA0009093C60008958091C00087FFFCCF809118
:107FB000C00084FD01C0A8958091C6000895E0E648
:107FC000F0E098E1908380830895EDDF803219F02E
:107FD00088E0F5DFFFCF84E1DECF1F93182FE3DFCA
:107FE0001150E9F7F2DF1F91089580E0E8DFEE27F6
:047FF000FF270994CA
:027FFE00040479
:00000001FF
